{
  "contracts/Charity.sol": {
    "Charity": {
      "abi": [
        {
          "inputs": [],
          "stateMutability": "nonpayable",
          "type": "constructor"
        },
        {
          "inputs": [],
          "name": "ReentrancyGuardReentrantCall",
          "type": "error"
        },
        {
          "anonymous": false,
          "inputs": [
            {
              "indexed": true,
              "internalType": "uint256",
              "name": "campaignId",
              "type": "uint256"
            }
          ],
          "name": "CampaignCanceled",
          "type": "event"
        },
        {
          "anonymous": false,
          "inputs": [
            {
              "indexed": true,
              "internalType": "uint256",
              "name": "campaignId",
              "type": "uint256"
            },
            {
              "indexed": false,
              "internalType": "string",
              "name": "title",
              "type": "string"
            },
            {
              "indexed": false,
              "internalType": "uint256",
              "name": "goal",
              "type": "uint256"
            },
            {
              "indexed": false,
              "internalType": "address",
              "name": "recipient",
              "type": "address"
            }
          ],
          "name": "CampaignCreated",
          "type": "event"
        },
        {
          "anonymous": false,
          "inputs": [
            {
              "indexed": true,
              "internalType": "uint256",
              "name": "campaignId",
              "type": "uint256"
            },
            {
              "indexed": false,
              "internalType": "address",
              "name": "donor",
              "type": "address"
            },
            {
              "indexed": false,
              "internalType": "uint256",
              "name": "amount",
              "type": "uint256"
            }
          ],
          "name": "DonationReceived",
          "type": "event"
        },
        {
          "anonymous": false,
          "inputs": [
            {
              "indexed": true,
              "internalType": "uint256",
              "name": "campaignId",
              "type": "uint256"
            },
            {
              "indexed": false,
              "internalType": "address",
              "name": "recipient",
              "type": "address"
            },
            {
              "indexed": false,
              "internalType": "uint256",
              "name": "total",
              "type": "uint256"
            }
          ],
          "name": "FundsReleased",
          "type": "event"
        },
        {
          "anonymous": false,
          "inputs": [
            {
              "indexed": true,
              "internalType": "uint256",
              "name": "campaignId",
              "type": "uint256"
            }
          ],
          "name": "goalMet",
          "type": "event"
        },
        {
          "inputs": [
            {
              "internalType": "address",
              "name": "_newAdmin",
              "type": "address"
            }
          ],
          "name": "addAdmin",
          "outputs": [],
          "stateMutability": "nonpayable",
          "type": "function"
        },
        {
          "inputs": [],
          "name": "campaignCount",
          "outputs": [
            {
              "internalType": "uint256",
              "name": "",
              "type": "uint256"
            }
          ],
          "stateMutability": "view",
          "type": "function"
        },
        {
          "inputs": [
            {
              "internalType": "uint256",
              "name": "",
              "type": "uint256"
            }
          ],
          "name": "campaigns",
          "outputs": [
            {
              "internalType": "string",
              "name": "title",
              "type": "string"
            },
            {
              "internalType": "string",
              "name": "description",
              "type": "string"
            },
            {
              "internalType": "address",
              "name": "recipient",
              "type": "address"
            },
            {
              "internalType": "uint256",
              "name": "goal",
              "type": "uint256"
            },
            {
              "internalType": "uint256",
              "name": "totalDonated",
              "type": "uint256"
            },
            {
              "internalType": "uint256",
              "name": "creationTime",
              "type": "uint256"
            },
            {
              "internalType": "bool",
              "name": "isCompleted",
              "type": "bool"
            }
          ],
          "stateMutability": "view",
          "type": "function"
        },
        {
          "inputs": [
            {
              "internalType": "uint256",
              "name": "_campaignId",
              "type": "uint256"
            }
          ],
          "name": "cancelCampaign",
          "outputs": [],
          "stateMutability": "nonpayable",
          "type": "function"
        },
        {
          "inputs": [
            {
              "internalType": "string",
              "name": "_title",
              "type": "string"
            },
            {
              "internalType": "string",
              "name": "_description",
              "type": "string"
            },
            {
              "internalType": "address",
              "name": "_recipient",
              "type": "address"
            },
            {
              "internalType": "uint256",
              "name": "_goal",
              "type": "uint256"
            }
          ],
          "name": "createCampaign",
          "outputs": [],
          "stateMutability": "nonpayable",
          "type": "function"
        },
        {
          "inputs": [
            {
              "internalType": "uint256",
              "name": "_campaignId",
              "type": "uint256"
            }
          ],
          "name": "donate",
          "outputs": [],
          "stateMutability": "payable",
          "type": "function"
        },
        {
          "inputs": [
            {
              "internalType": "uint256",
              "name": "_id",
              "type": "uint256"
            }
          ],
          "name": "getCampaign",
          "outputs": [
            {
              "internalType": "string",
              "name": "title",
              "type": "string"
            },
            {
              "internalType": "string",
              "name": "description",
              "type": "string"
            },
            {
              "internalType": "address",
              "name": "recipient",
              "type": "address"
            },
            {
              "internalType": "uint256",
              "name": "goal",
              "type": "uint256"
            },
            {
              "internalType": "uint256",
              "name": "totalDonated",
              "type": "uint256"
            },
            {
              "internalType": "uint256",
              "name": "creationTime",
              "type": "uint256"
            },
            {
              "internalType": "bool",
              "name": "isCompleted",
              "type": "bool"
            }
          ],
          "stateMutability": "view",
          "type": "function"
        },
        {
          "inputs": [],
          "name": "getCampaignCount",
          "outputs": [
            {
              "internalType": "uint256",
              "name": "",
              "type": "uint256"
            }
          ],
          "stateMutability": "view",
          "type": "function"
        },
        {
          "inputs": [
            {
              "internalType": "uint256",
              "name": "_campaignId",
              "type": "uint256"
            },
            {
              "internalType": "address",
              "name": "_donor",
              "type": "address"
            }
          ],
          "name": "getDonationAmountByDonor",
          "outputs": [
            {
              "internalType": "uint256",
              "name": "",
              "type": "uint256"
            }
          ],
          "stateMutability": "view",
          "type": "function"
        },
        {
          "inputs": [
            {
              "internalType": "uint256",
              "name": "_campaignId",
              "type": "uint256"
            }
          ],
          "name": "getDonors",
          "outputs": [
            {
              "internalType": "address[]",
              "name": "",
              "type": "address[]"
            }
          ],
          "stateMutability": "view",
          "type": "function"
        },
        {
          "inputs": [
            {
              "internalType": "address",
              "name": "",
              "type": "address"
            }
          ],
          "name": "isAdmin",
          "outputs": [
            {
              "internalType": "bool",
              "name": "",
              "type": "bool"
            }
          ],
          "stateMutability": "view",
          "type": "function"
        },
        {
          "inputs": [
            {
              "internalType": "address",
              "name": "_user",
              "type": "address"
            }
          ],
          "name": "isAdminStatus",
          "outputs": [
            {
              "internalType": "bool",
              "name": "",
              "type": "bool"
            }
          ],
          "stateMutability": "view",
          "type": "function"
        },
        {
          "inputs": [
            {
              "internalType": "uint256",
              "name": "_campaignId",
              "type": "uint256"
            }
          ],
          "name": "releaseFunds",
          "outputs": [],
          "stateMutability": "nonpayable",
          "type": "function"
        },
        {
          "inputs": [
            {
              "internalType": "address",
              "name": "_admin",
              "type": "address"
            }
          ],
          "name": "removeAdmin",
          "outputs": [],
          "stateMutability": "nonpayable",
          "type": "function"
        },
        {
          "stateMutability": "payable",
          "type": "receive"
        }
      ],
      "evm": {
        "bytecode": {
          "linkReferences": {},
          "object": "6080604052348015600f57600080fd5b5060016000818155338152600260205260409020805460ff191690911790556115398061003d6000396000f3fe6080604052600436106100e15760003560e01c80635598f8cc1161007f57806372611b961161005957806372611b96146102c25780637274e30d146102e25780638f88743b146102f8578063f14faf6f1461033157600080fd5b80635598f8cc146102635780636caa92181461028357806370480275146102a257600080fd5b806324d7806c116100bb57806324d7806c146101b657806329516511146101f657806345598b4a146102235780634d68282f1461024357600080fd5b8063141961bc146101385780631785f53c146101745780631d921f621461019657600080fd5b366101335760405162461bcd60e51b815260206004820152601c60248201527f446972656374206465706f73697473206e6f7420616c6c6f776564210000000060448201526064015b60405180910390fd5b600080fd5b34801561014457600080fd5b50610158610153366004611000565b610344565b60405161016b979695949392919061105f565b60405180910390f35b34801561018057600080fd5b5061019461018f3660046110d6565b61049c565b005b3480156101a257600080fd5b506101946101b136600461119d565b61057c565b3480156101c257600080fd5b506101e66101d13660046110d6565b60026020526000908152604090205460ff1681565b604051901515815260200161016b565b34801561020257600080fd5b50610216610211366004611000565b610723565b60405161016b919061121e565b34801561022f57600080fd5b5061019461023e366004611000565b6107b6565b34801561024f57600080fd5b5061019461025e366004611000565b6108a9565b34801561026f57600080fd5b5061015861027e366004611000565b610b16565b34801561028f57600080fd5b506003545b60405190815260200161016b565b3480156102ae57600080fd5b506101946102bd3660046110d6565b610cba565b3480156102ce57600080fd5b506102946102dd36600461126a565b610d9e565b3480156102ee57600080fd5b5061029460035481565b34801561030457600080fd5b506101e66103133660046110d6565b6001600160a01b031660009081526002602052604090205460ff1690565b61019461033f366004611000565b610df0565b60016020526000908152604090208054819061035f90611296565b80601f016020809104026020016040519081016040528092919081815260200182805461038b90611296565b80156103d85780601f106103ad576101008083540402835291602001916103d8565b820191906000526020600020905b8154815290600101906020018083116103bb57829003601f168201915b5050505050908060010180546103ed90611296565b80601f016020809104026020016040519081016040528092919081815260200182805461041990611296565b80156104665780601f1061043b57610100808354040283529160200191610466565b820191906000526020600020905b81548152906001019060200180831161044957829003601f168201915b505050600284015460038501546004860154600587015460089097015495966001600160a01b0390931695919450925060ff1687565b3360009081526002602052604090205460ff166104cb5760405162461bcd60e51b815260040161012a906112ca565b806001600160a01b0381166104f25760405162461bcd60e51b815260040161012a9061130c565b6001600160a01b03821660009081526002602052604090205460ff1661055a5760405162461bcd60e51b815260206004820152601960248201527f5468652075736572206973206e6f7420616e2061646d696e2100000000000000604482015260640161012a565b506001600160a01b03166000908152600260205260409020805460ff19169055565b3360009081526002602052604090205460ff166105ab5760405162461bcd60e51b815260040161012a906112ca565b816001600160a01b0381166105d25760405162461bcd60e51b815260040161012a9061130c565b84516000036106145760405162461bcd60e51b815260206004820152600e60248201526d496e76616c6964207469746c652160901b604482015260640161012a565b600082116106645760405162461bcd60e51b815260206004820152601e60248201527f476f616c206d757374206265206120706f7369746976652076616c7565210000604482015260640161012a565b600354600090815260016020819052604090912042600582015590810161068b8682611384565b506003810183905560088101805460ff191690556002810180546001600160a01b0319166001600160a01b038616179055806106c78782611384565b506003547f6fc7a1de3ccfc251acab8f2f41819123cd49f5da653ad8e7d5ca2f5e8ff765728785876040516106fe93929190611443565b60405180910390a2600380549060006107168361148c565b9190505550505050505050565b60608160035481106107475760405162461bcd60e51b815260040161012a906114a5565b600083815260016020908152604091829020600601805483518184028101840190945280845290918301828280156107a857602002820191906000526020600020905b81546001600160a01b0316815260019091019060200180831161078a575b505050505091505b50919050565b3360009081526002602052604090205460ff166107e55760405162461bcd60e51b815260040161012a906112ca565b8060035481106108075760405162461bcd60e51b815260040161012a906114a5565b6000828152600160205260409020600881015460ff161561086a5760405162461bcd60e51b815260206004820152601e60248201527f43616d706169676e20697320616c726561647920636f6d706c65746564210000604482015260640161012a565b60088101805460ff1916600117905560405183907f1925581c2be6a6ef3cd786635d86c841eb4bbdb051dce32356a44c457d03499890600090a2505050565b8060035481106108cb5760405162461bcd60e51b815260040161012a906114a5565b3360009081526002602052604090205460ff166108fa5760405162461bcd60e51b815260040161012a906112ca565b610902610fd6565b600082815260016020526040902060048101546109615760405162461bcd60e51b815260206004820152601c60248201527f5468657265206973206e6f7468696e6720746f2072656c656173652100000000604482015260640161012a565b8060030154816004015410156109b25760405162461bcd60e51b8152602060048201526016602482015275476f616c20686173206e6f74206265656e206d65742160501b604482015260640161012a565b600881015460ff1615610a075760405162461bcd60e51b815260206004820152601b60248201527f43616d706169676e20616c726561647920636f6d706c65746564210000000000604482015260640161012a565b60088101805460ff19166001179055600281015460048201546040516000926001600160a01b031691908381818185875af1925050503d8060008114610a69576040519150601f19603f3d011682016040523d82523d6000602084013e610a6e565b606091505b5050905080610ab65760405162461bcd60e51b81526020600482015260146024820152734661696c656420746f2073656e642066756e647360601b604482015260640161012a565b60028201546004830154604080516001600160a01b039093168352602083019190915285917f6e3c6096795c8298a218b2cfb8bde42726ff7c9a3d27b4d3ba41ab7f74feb5fb910160405180910390a25050610b126001600055565b5050565b6060806000806000806000876003548110610b435760405162461bcd60e51b815260040161012a906114a5565b600089815260016020819052604090912060028101546003820154600483015460058401546008850154855495968796908701956001600160a01b03169493929160ff16908790610b9390611296565b80601f0160208091040260200160405190810160405280929190818152602001828054610bbf90611296565b8015610c0c5780601f10610be157610100808354040283529160200191610c0c565b820191906000526020600020905b815481529060010190602001808311610bef57829003601f168201915b50505050509650858054610c1f90611296565b80601f0160208091040260200160405190810160405280929190818152602001828054610c4b90611296565b8015610c985780601f10610c6d57610100808354040283529160200191610c98565b820191906000526020600020905b815481529060010190602001808311610c7b57829003601f168201915b5050505050955098509850985098509850985098505050919395979092949650565b3360009081526002602052604090205460ff16610ce95760405162461bcd60e51b815260040161012a906112ca565b806001600160a01b038116610d105760405162461bcd60e51b815260040161012a9061130c565b6001600160a01b03821660009081526002602052604090205460ff1615610d795760405162461bcd60e51b815260206004820152601d60248201527f546865207573657220697320616c726561647920616e2061646d696e21000000604482015260640161012a565b506001600160a01b03166000908152600260205260409020805460ff19166001179055565b6000826003548110610dc25760405162461bcd60e51b815260040161012a906114a5565b505060009182526001602090815260408084206001600160a01b039390931684526007909201905290205490565b3460008111610e4c5760405162461bcd60e51b815260206004820152602260248201527f446f6e6174696f6e206d7573742062652067726561746572207468616e207a65604482015261726f60f01b606482015260840161012a565b816003548110610e6e5760405162461bcd60e51b815260040161012a906114a5565b610e76610fd6565b6000838152600160205260409020600881015460ff1615610ed25760405162461bcd60e51b815260206004820152601660248201527543616d706169676e20697320636f6d706c657465642160501b604482015260640161012a565b3360009081526007820160205260408120549003610f1257600681018054600181018255600091825260209091200180546001600160a01b031916331790555b34816004016000828254610f2691906114ea565b909155505033600090815260078201602052604081208054349290610f4c9084906114ea565b90915550506040805133815234602082015285917f0b5b4c52969ff7329ecf7ee536409fda87812b15a8622bc6e8cdeab3aee14a26910160405180910390a28060030154816004015410610fc65760405184907f4acdef45fd55ba3ad13c840b8650488e3312e0cdc273791c079350612400123190600090a25b50610fd16001600055565b505050565b600260005403610ff957604051633ee5aeb560e01b815260040160405180910390fd5b6002600055565b60006020828403121561101257600080fd5b5035919050565b6000815180845260005b8181101561103f57602081850181015186830182015201611023565b506000602082860101526020601f19601f83011685010191505092915050565b60e08152600061107260e083018a611019565b8281036020840152611084818a611019565b6001600160a01b0398909816604084015250506060810194909452608084019290925260a0830152151560c09091015292915050565b80356001600160a01b03811681146110d157600080fd5b919050565b6000602082840312156110e857600080fd5b6110f1826110ba565b9392505050565b634e487b7160e01b600052604160045260246000fd5b600082601f83011261111f57600080fd5b813567ffffffffffffffff811115611139576111396110f8565b604051601f8201601f19908116603f0116810167ffffffffffffffff81118282101715611168576111686110f8565b60405281815283820160200185101561118057600080fd5b816020850160208301376000918101602001919091529392505050565b600080600080608085870312156111b357600080fd5b843567ffffffffffffffff8111156111ca57600080fd5b6111d68782880161110e565b945050602085013567ffffffffffffffff8111156111f357600080fd5b6111ff8782880161110e565b93505061120e604086016110ba565b9396929550929360600135925050565b602080825282518282018190526000918401906040840190835b8181101561125f5783516001600160a01b0316835260209384019390920191600101611238565b509095945050505050565b6000806040838503121561127d57600080fd5b8235915061128d602084016110ba565b90509250929050565b600181811c908216806112aa57607f821691505b6020821081036107b057634e487b7160e01b600052602260045260246000fd5b60208082526022908201527f4f6e6c792061646d696e2063616e20706572666f726d2074686973206163746960408201526137b760f11b606082015260800190565b60208082526010908201526f496e76616c696420616464726573732160801b604082015260600190565b601f821115610fd157806000526020600020601f840160051c8101602085101561135d5750805b601f840160051c820191505b8181101561137d5760008155600101611369565b5050505050565b815167ffffffffffffffff81111561139e5761139e6110f8565b6113b2816113ac8454611296565b84611336565b6020601f8211600181146113e657600083156113ce5750848201515b600019600385901b1c1916600184901b17845561137d565b600084815260208120601f198516915b8281101561141657878501518255602094850194600190920191016113f6565b50848210156114345786840151600019600387901b60f8161c191681555b50505050600190811b01905550565b6060815260006114566060830186611019565b6020830194909452506001600160a01b0391909116604090910152919050565b634e487b7160e01b600052601160045260246000fd5b60006001820161149e5761149e611476565b5060010190565b60208082526025908201527f43616d706169676e2077697468207468697320494420646f6573206e6f742065604082015264786973742160d81b606082015260800190565b808201808211156114fd576114fd611476565b9291505056fea2646970667358221220075bf2ba672f481e11b1a23572e21a4951bc4d85eeb4baa6ff69af71b37023e064736f6c634300081c0033",
          "opcodes": "PUSH1 0x80 PUSH1 0x40 MSTORE CALLVALUE DUP1 ISZERO PUSH1 0xF JUMPI PUSH1 0x0 DUP1 REVERT JUMPDEST POP PUSH1 0x1 PUSH1 0x0 DUP2 DUP2 SSTORE CALLER DUP2 MSTORE PUSH1 0x2 PUSH1 0x20 MSTORE PUSH1 0x40 SWAP1 KECCAK256 DUP1 SLOAD PUSH1 0xFF NOT AND SWAP1 SWAP2 OR SWAP1 SSTORE PUSH2 0x1539 DUP1 PUSH2 0x3D PUSH1 0x0 CODECOPY PUSH1 0x0 RETURN INVALID PUSH1 0x80 PUSH1 0x40 MSTORE PUSH1 0x4 CALLDATASIZE LT PUSH2 0xE1 JUMPI PUSH1 0x0 CALLDATALOAD PUSH1 0xE0 SHR DUP1 PUSH4 0x5598F8CC GT PUSH2 0x7F JUMPI DUP1 PUSH4 0x72611B96 GT PUSH2 0x59 JUMPI DUP1 PUSH4 0x72611B96 EQ PUSH2 0x2C2 JUMPI DUP1 PUSH4 0x7274E30D EQ PUSH2 0x2E2 JUMPI DUP1 PUSH4 0x8F88743B EQ PUSH2 0x2F8 JUMPI DUP1 PUSH4 0xF14FAF6F EQ PUSH2 0x331 JUMPI PUSH1 0x0 DUP1 REVERT JUMPDEST DUP1 PUSH4 0x5598F8CC EQ PUSH2 0x263 JUMPI DUP1 PUSH4 0x6CAA9218 EQ PUSH2 0x283 JUMPI DUP1 PUSH4 0x70480275 EQ PUSH2 0x2A2 JUMPI PUSH1 0x0 DUP1 REVERT JUMPDEST DUP1 PUSH4 0x24D7806C GT PUSH2 0xBB JUMPI DUP1 PUSH4 0x24D7806C EQ PUSH2 0x1B6 JUMPI DUP1 PUSH4 0x29516511 EQ PUSH2 0x1F6 JUMPI DUP1 PUSH4 0x45598B4A EQ PUSH2 0x223 JUMPI DUP1 PUSH4 0x4D68282F EQ PUSH2 0x243 JUMPI PUSH1 0x0 DUP1 REVERT JUMPDEST DUP1 PUSH4 0x141961BC EQ PUSH2 0x138 JUMPI DUP1 PUSH4 0x1785F53C EQ PUSH2 0x174 JUMPI DUP1 PUSH4 0x1D921F62 EQ PUSH2 0x196 JUMPI PUSH1 0x0 DUP1 REVERT JUMPDEST CALLDATASIZE PUSH2 0x133 JUMPI PUSH1 0x40 MLOAD PUSH3 0x461BCD PUSH1 0xE5 SHL DUP2 MSTORE PUSH1 0x20 PUSH1 0x4 DUP3 ADD MSTORE PUSH1 0x1C PUSH1 0x24 DUP3 ADD MSTORE PUSH32 0x446972656374206465706F73697473206E6F7420616C6C6F7765642100000000 PUSH1 0x44 DUP3 ADD MSTORE PUSH1 0x64 ADD JUMPDEST PUSH1 0x40 MLOAD DUP1 SWAP2 SUB SWAP1 REVERT JUMPDEST PUSH1 0x0 DUP1 REVERT JUMPDEST CALLVALUE DUP1 ISZERO PUSH2 0x144 JUMPI PUSH1 0x0 DUP1 REVERT JUMPDEST POP PUSH2 0x158 PUSH2 0x153 CALLDATASIZE PUSH1 0x4 PUSH2 0x1000 JUMP JUMPDEST PUSH2 0x344 JUMP JUMPDEST PUSH1 0x40 MLOAD PUSH2 0x16B SWAP8 SWAP7 SWAP6 SWAP5 SWAP4 SWAP3 SWAP2 SWAP1 PUSH2 0x105F JUMP JUMPDEST PUSH1 0x40 MLOAD DUP1 SWAP2 SUB SWAP1 RETURN JUMPDEST CALLVALUE DUP1 ISZERO PUSH2 0x180 JUMPI PUSH1 0x0 DUP1 REVERT JUMPDEST POP PUSH2 0x194 PUSH2 0x18F CALLDATASIZE PUSH1 0x4 PUSH2 0x10D6 JUMP JUMPDEST PUSH2 0x49C JUMP JUMPDEST STOP JUMPDEST CALLVALUE DUP1 ISZERO PUSH2 0x1A2 JUMPI PUSH1 0x0 DUP1 REVERT JUMPDEST POP PUSH2 0x194 PUSH2 0x1B1 CALLDATASIZE PUSH1 0x4 PUSH2 0x119D JUMP JUMPDEST PUSH2 0x57C JUMP JUMPDEST CALLVALUE DUP1 ISZERO PUSH2 0x1C2 JUMPI PUSH1 0x0 DUP1 REVERT JUMPDEST POP PUSH2 0x1E6 PUSH2 0x1D1 CALLDATASIZE PUSH1 0x4 PUSH2 0x10D6 JUMP JUMPDEST PUSH1 0x2 PUSH1 0x20 MSTORE PUSH1 0x0 SWAP1 DUP2 MSTORE PUSH1 0x40 SWAP1 KECCAK256 SLOAD PUSH1 0xFF AND DUP2 JUMP JUMPDEST PUSH1 0x40 MLOAD SWAP1 ISZERO ISZERO DUP2 MSTORE PUSH1 0x20 ADD PUSH2 0x16B JUMP JUMPDEST CALLVALUE DUP1 ISZERO PUSH2 0x202 JUMPI PUSH1 0x0 DUP1 REVERT JUMPDEST POP PUSH2 0x216 PUSH2 0x211 CALLDATASIZE PUSH1 0x4 PUSH2 0x1000 JUMP JUMPDEST PUSH2 0x723 JUMP JUMPDEST PUSH1 0x40 MLOAD PUSH2 0x16B SWAP2 SWAP1 PUSH2 0x121E JUMP JUMPDEST CALLVALUE DUP1 ISZERO PUSH2 0x22F JUMPI PUSH1 0x0 DUP1 REVERT JUMPDEST POP PUSH2 0x194 PUSH2 0x23E CALLDATASIZE PUSH1 0x4 PUSH2 0x1000 JUMP JUMPDEST PUSH2 0x7B6 JUMP JUMPDEST CALLVALUE DUP1 ISZERO PUSH2 0x24F JUMPI PUSH1 0x0 DUP1 REVERT JUMPDEST POP PUSH2 0x194 PUSH2 0x25E CALLDATASIZE PUSH1 0x4 PUSH2 0x1000 JUMP JUMPDEST PUSH2 0x8A9 JUMP JUMPDEST CALLVALUE DUP1 ISZERO PUSH2 0x26F JUMPI PUSH1 0x0 DUP1 REVERT JUMPDEST POP PUSH2 0x158 PUSH2 0x27E CALLDATASIZE PUSH1 0x4 PUSH2 0x1000 JUMP JUMPDEST PUSH2 0xB16 JUMP JUMPDEST CALLVALUE DUP1 ISZERO PUSH2 0x28F JUMPI PUSH1 0x0 DUP1 REVERT JUMPDEST POP PUSH1 0x3 SLOAD JUMPDEST PUSH1 0x40 MLOAD SWAP1 DUP2 MSTORE PUSH1 0x20 ADD PUSH2 0x16B JUMP JUMPDEST CALLVALUE DUP1 ISZERO PUSH2 0x2AE JUMPI PUSH1 0x0 DUP1 REVERT JUMPDEST POP PUSH2 0x194 PUSH2 0x2BD CALLDATASIZE PUSH1 0x4 PUSH2 0x10D6 JUMP JUMPDEST PUSH2 0xCBA JUMP JUMPDEST CALLVALUE DUP1 ISZERO PUSH2 0x2CE JUMPI PUSH1 0x0 DUP1 REVERT JUMPDEST POP PUSH2 0x294 PUSH2 0x2DD CALLDATASIZE PUSH1 0x4 PUSH2 0x126A JUMP JUMPDEST PUSH2 0xD9E JUMP JUMPDEST CALLVALUE DUP1 ISZERO PUSH2 0x2EE JUMPI PUSH1 0x0 DUP1 REVERT JUMPDEST POP PUSH2 0x294 PUSH1 0x3 SLOAD DUP2 JUMP JUMPDEST CALLVALUE DUP1 ISZERO PUSH2 0x304 JUMPI PUSH1 0x0 DUP1 REVERT JUMPDEST POP PUSH2 0x1E6 PUSH2 0x313 CALLDATASIZE PUSH1 0x4 PUSH2 0x10D6 JUMP JUMPDEST PUSH1 0x1 PUSH1 0x1 PUSH1 0xA0 SHL SUB AND PUSH1 0x0 SWAP1 DUP2 MSTORE PUSH1 0x2 PUSH1 0x20 MSTORE PUSH1 0x40 SWAP1 KECCAK256 SLOAD PUSH1 0xFF AND SWAP1 JUMP JUMPDEST PUSH2 0x194 PUSH2 0x33F CALLDATASIZE PUSH1 0x4 PUSH2 0x1000 JUMP JUMPDEST PUSH2 0xDF0 JUMP JUMPDEST PUSH1 0x1 PUSH1 0x20 MSTORE PUSH1 0x0 SWAP1 DUP2 MSTORE PUSH1 0x40 SWAP1 KECCAK256 DUP1 SLOAD DUP2 SWAP1 PUSH2 0x35F SWAP1 PUSH2 0x1296 JUMP JUMPDEST DUP1 PUSH1 0x1F ADD PUSH1 0x20 DUP1 SWAP2 DIV MUL PUSH1 0x20 ADD PUSH1 0x40 MLOAD SWAP1 DUP2 ADD PUSH1 0x40 MSTORE DUP1 SWAP3 SWAP2 SWAP1 DUP2 DUP2 MSTORE PUSH1 0x20 ADD DUP3 DUP1 SLOAD PUSH2 0x38B SWAP1 PUSH2 0x1296 JUMP JUMPDEST DUP1 ISZERO PUSH2 0x3D8 JUMPI DUP1 PUSH1 0x1F LT PUSH2 0x3AD JUMPI PUSH2 0x100 DUP1 DUP4 SLOAD DIV MUL DUP4 MSTORE SWAP2 PUSH1 0x20 ADD SWAP2 PUSH2 0x3D8 JUMP JUMPDEST DUP3 ADD SWAP2 SWAP1 PUSH1 0x0 MSTORE PUSH1 0x20 PUSH1 0x0 KECCAK256 SWAP1 JUMPDEST DUP2 SLOAD DUP2 MSTORE SWAP1 PUSH1 0x1 ADD SWAP1 PUSH1 0x20 ADD DUP1 DUP4 GT PUSH2 0x3BB JUMPI DUP3 SWAP1 SUB PUSH1 0x1F AND DUP3 ADD SWAP2 JUMPDEST POP POP POP POP POP SWAP1 DUP1 PUSH1 0x1 ADD DUP1 SLOAD PUSH2 0x3ED SWAP1 PUSH2 0x1296 JUMP JUMPDEST DUP1 PUSH1 0x1F ADD PUSH1 0x20 DUP1 SWAP2 DIV MUL PUSH1 0x20 ADD PUSH1 0x40 MLOAD SWAP1 DUP2 ADD PUSH1 0x40 MSTORE DUP1 SWAP3 SWAP2 SWAP1 DUP2 DUP2 MSTORE PUSH1 0x20 ADD DUP3 DUP1 SLOAD PUSH2 0x419 SWAP1 PUSH2 0x1296 JUMP JUMPDEST DUP1 ISZERO PUSH2 0x466 JUMPI DUP1 PUSH1 0x1F LT PUSH2 0x43B JUMPI PUSH2 0x100 DUP1 DUP4 SLOAD DIV MUL DUP4 MSTORE SWAP2 PUSH1 0x20 ADD SWAP2 PUSH2 0x466 JUMP JUMPDEST DUP3 ADD SWAP2 SWAP1 PUSH1 0x0 MSTORE PUSH1 0x20 PUSH1 0x0 KECCAK256 SWAP1 JUMPDEST DUP2 SLOAD DUP2 MSTORE SWAP1 PUSH1 0x1 ADD SWAP1 PUSH1 0x20 ADD DUP1 DUP4 GT PUSH2 0x449 JUMPI DUP3 SWAP1 SUB PUSH1 0x1F AND DUP3 ADD SWAP2 JUMPDEST POP POP POP PUSH1 0x2 DUP5 ADD SLOAD PUSH1 0x3 DUP6 ADD SLOAD PUSH1 0x4 DUP7 ADD SLOAD PUSH1 0x5 DUP8 ADD SLOAD PUSH1 0x8 SWAP1 SWAP8 ADD SLOAD SWAP6 SWAP7 PUSH1 0x1 PUSH1 0x1 PUSH1 0xA0 SHL SUB SWAP1 SWAP4 AND SWAP6 SWAP2 SWAP5 POP SWAP3 POP PUSH1 0xFF AND DUP8 JUMP JUMPDEST CALLER PUSH1 0x0 SWAP1 DUP2 MSTORE PUSH1 0x2 PUSH1 0x20 MSTORE PUSH1 0x40 SWAP1 KECCAK256 SLOAD PUSH1 0xFF AND PUSH2 0x4CB JUMPI PUSH1 0x40 MLOAD PUSH3 0x461BCD PUSH1 0xE5 SHL DUP2 MSTORE PUSH1 0x4 ADD PUSH2 0x12A SWAP1 PUSH2 0x12CA JUMP JUMPDEST DUP1 PUSH1 0x1 PUSH1 0x1 PUSH1 0xA0 SHL SUB DUP2 AND PUSH2 0x4F2 JUMPI PUSH1 0x40 MLOAD PUSH3 0x461BCD PUSH1 0xE5 SHL DUP2 MSTORE PUSH1 0x4 ADD PUSH2 0x12A SWAP1 PUSH2 0x130C JUMP JUMPDEST PUSH1 0x1 PUSH1 0x1 PUSH1 0xA0 SHL SUB DUP3 AND PUSH1 0x0 SWAP1 DUP2 MSTORE PUSH1 0x2 PUSH1 0x20 MSTORE PUSH1 0x40 SWAP1 KECCAK256 SLOAD PUSH1 0xFF AND PUSH2 0x55A JUMPI PUSH1 0x40 MLOAD PUSH3 0x461BCD PUSH1 0xE5 SHL DUP2 MSTORE PUSH1 0x20 PUSH1 0x4 DUP3 ADD MSTORE PUSH1 0x19 PUSH1 0x24 DUP3 ADD MSTORE PUSH32 0x5468652075736572206973206E6F7420616E2061646D696E2100000000000000 PUSH1 0x44 DUP3 ADD MSTORE PUSH1 0x64 ADD PUSH2 0x12A JUMP JUMPDEST POP PUSH1 0x1 PUSH1 0x1 PUSH1 0xA0 SHL SUB AND PUSH1 0x0 SWAP1 DUP2 MSTORE PUSH1 0x2 PUSH1 0x20 MSTORE PUSH1 0x40 SWAP1 KECCAK256 DUP1 SLOAD PUSH1 0xFF NOT AND SWAP1 SSTORE JUMP JUMPDEST CALLER PUSH1 0x0 SWAP1 DUP2 MSTORE PUSH1 0x2 PUSH1 0x20 MSTORE PUSH1 0x40 SWAP1 KECCAK256 SLOAD PUSH1 0xFF AND PUSH2 0x5AB JUMPI PUSH1 0x40 MLOAD PUSH3 0x461BCD PUSH1 0xE5 SHL DUP2 MSTORE PUSH1 0x4 ADD PUSH2 0x12A SWAP1 PUSH2 0x12CA JUMP JUMPDEST DUP2 PUSH1 0x1 PUSH1 0x1 PUSH1 0xA0 SHL SUB DUP2 AND PUSH2 0x5D2 JUMPI PUSH1 0x40 MLOAD PUSH3 0x461BCD PUSH1 0xE5 SHL DUP2 MSTORE PUSH1 0x4 ADD PUSH2 0x12A SWAP1 PUSH2 0x130C JUMP JUMPDEST DUP5 MLOAD PUSH1 0x0 SUB PUSH2 0x614 JUMPI PUSH1 0x40 MLOAD PUSH3 0x461BCD PUSH1 0xE5 SHL DUP2 MSTORE PUSH1 0x20 PUSH1 0x4 DUP3 ADD MSTORE PUSH1 0xE PUSH1 0x24 DUP3 ADD MSTORE PUSH14 0x496E76616C6964207469746C6521 PUSH1 0x90 SHL PUSH1 0x44 DUP3 ADD MSTORE PUSH1 0x64 ADD PUSH2 0x12A JUMP JUMPDEST PUSH1 0x0 DUP3 GT PUSH2 0x664 JUMPI PUSH1 0x40 MLOAD PUSH3 0x461BCD PUSH1 0xE5 SHL DUP2 MSTORE PUSH1 0x20 PUSH1 0x4 DUP3 ADD MSTORE PUSH1 0x1E PUSH1 0x24 DUP3 ADD MSTORE PUSH32 0x476F616C206D757374206265206120706F7369746976652076616C7565210000 PUSH1 0x44 DUP3 ADD MSTORE PUSH1 0x64 ADD PUSH2 0x12A JUMP JUMPDEST PUSH1 0x3 SLOAD PUSH1 0x0 SWAP1 DUP2 MSTORE PUSH1 0x1 PUSH1 0x20 DUP2 SWAP1 MSTORE PUSH1 0x40 SWAP1 SWAP2 KECCAK256 TIMESTAMP PUSH1 0x5 DUP3 ADD SSTORE SWAP1 DUP2 ADD PUSH2 0x68B DUP7 DUP3 PUSH2 0x1384 JUMP JUMPDEST POP PUSH1 0x3 DUP2 ADD DUP4 SWAP1 SSTORE PUSH1 0x8 DUP2 ADD DUP1 SLOAD PUSH1 0xFF NOT AND SWAP1 SSTORE PUSH1 0x2 DUP2 ADD DUP1 SLOAD PUSH1 0x1 PUSH1 0x1 PUSH1 0xA0 SHL SUB NOT AND PUSH1 0x1 PUSH1 0x1 PUSH1 0xA0 SHL SUB DUP7 AND OR SWAP1 SSTORE DUP1 PUSH2 0x6C7 DUP8 DUP3 PUSH2 0x1384 JUMP JUMPDEST POP PUSH1 0x3 SLOAD PUSH32 0x6FC7A1DE3CCFC251ACAB8F2F41819123CD49F5DA653AD8E7D5CA2F5E8FF76572 DUP8 DUP6 DUP8 PUSH1 0x40 MLOAD PUSH2 0x6FE SWAP4 SWAP3 SWAP2 SWAP1 PUSH2 0x1443 JUMP JUMPDEST PUSH1 0x40 MLOAD DUP1 SWAP2 SUB SWAP1 LOG2 PUSH1 0x3 DUP1 SLOAD SWAP1 PUSH1 0x0 PUSH2 0x716 DUP4 PUSH2 0x148C JUMP JUMPDEST SWAP2 SWAP1 POP SSTORE POP POP POP POP POP POP POP JUMP JUMPDEST PUSH1 0x60 DUP2 PUSH1 0x3 SLOAD DUP2 LT PUSH2 0x747 JUMPI PUSH1 0x40 MLOAD PUSH3 0x461BCD PUSH1 0xE5 SHL DUP2 MSTORE PUSH1 0x4 ADD PUSH2 0x12A SWAP1 PUSH2 0x14A5 JUMP JUMPDEST PUSH1 0x0 DUP4 DUP2 MSTORE PUSH1 0x1 PUSH1 0x20 SWAP1 DUP2 MSTORE PUSH1 0x40 SWAP2 DUP3 SWAP1 KECCAK256 PUSH1 0x6 ADD DUP1 SLOAD DUP4 MLOAD DUP2 DUP5 MUL DUP2 ADD DUP5 ADD SWAP1 SWAP5 MSTORE DUP1 DUP5 MSTORE SWAP1 SWAP2 DUP4 ADD DUP3 DUP3 DUP1 ISZERO PUSH2 0x7A8 JUMPI PUSH1 0x20 MUL DUP3 ADD SWAP2 SWAP1 PUSH1 0x0 MSTORE PUSH1 0x20 PUSH1 0x0 KECCAK256 SWAP1 JUMPDEST DUP2 SLOAD PUSH1 0x1 PUSH1 0x1 PUSH1 0xA0 SHL SUB AND DUP2 MSTORE PUSH1 0x1 SWAP1 SWAP2 ADD SWAP1 PUSH1 0x20 ADD DUP1 DUP4 GT PUSH2 0x78A JUMPI JUMPDEST POP POP POP POP POP SWAP2 POP JUMPDEST POP SWAP2 SWAP1 POP JUMP JUMPDEST CALLER PUSH1 0x0 SWAP1 DUP2 MSTORE PUSH1 0x2 PUSH1 0x20 MSTORE PUSH1 0x40 SWAP1 KECCAK256 SLOAD PUSH1 0xFF AND PUSH2 0x7E5 JUMPI PUSH1 0x40 MLOAD PUSH3 0x461BCD PUSH1 0xE5 SHL DUP2 MSTORE PUSH1 0x4 ADD PUSH2 0x12A SWAP1 PUSH2 0x12CA JUMP JUMPDEST DUP1 PUSH1 0x3 SLOAD DUP2 LT PUSH2 0x807 JUMPI PUSH1 0x40 MLOAD PUSH3 0x461BCD PUSH1 0xE5 SHL DUP2 MSTORE PUSH1 0x4 ADD PUSH2 0x12A SWAP1 PUSH2 0x14A5 JUMP JUMPDEST PUSH1 0x0 DUP3 DUP2 MSTORE PUSH1 0x1 PUSH1 0x20 MSTORE PUSH1 0x40 SWAP1 KECCAK256 PUSH1 0x8 DUP2 ADD SLOAD PUSH1 0xFF AND ISZERO PUSH2 0x86A JUMPI PUSH1 0x40 MLOAD PUSH3 0x461BCD PUSH1 0xE5 SHL DUP2 MSTORE PUSH1 0x20 PUSH1 0x4 DUP3 ADD MSTORE PUSH1 0x1E PUSH1 0x24 DUP3 ADD MSTORE PUSH32 0x43616D706169676E20697320616C726561647920636F6D706C65746564210000 PUSH1 0x44 DUP3 ADD MSTORE PUSH1 0x64 ADD PUSH2 0x12A JUMP JUMPDEST PUSH1 0x8 DUP2 ADD DUP1 SLOAD PUSH1 0xFF NOT AND PUSH1 0x1 OR SWAP1 SSTORE PUSH1 0x40 MLOAD DUP4 SWAP1 PUSH32 0x1925581C2BE6A6EF3CD786635D86C841EB4BBDB051DCE32356A44C457D034998 SWAP1 PUSH1 0x0 SWAP1 LOG2 POP POP POP JUMP JUMPDEST DUP1 PUSH1 0x3 SLOAD DUP2 LT PUSH2 0x8CB JUMPI PUSH1 0x40 MLOAD PUSH3 0x461BCD PUSH1 0xE5 SHL DUP2 MSTORE PUSH1 0x4 ADD PUSH2 0x12A SWAP1 PUSH2 0x14A5 JUMP JUMPDEST CALLER PUSH1 0x0 SWAP1 DUP2 MSTORE PUSH1 0x2 PUSH1 0x20 MSTORE PUSH1 0x40 SWAP1 KECCAK256 SLOAD PUSH1 0xFF AND PUSH2 0x8FA JUMPI PUSH1 0x40 MLOAD PUSH3 0x461BCD PUSH1 0xE5 SHL DUP2 MSTORE PUSH1 0x4 ADD PUSH2 0x12A SWAP1 PUSH2 0x12CA JUMP JUMPDEST PUSH2 0x902 PUSH2 0xFD6 JUMP JUMPDEST PUSH1 0x0 DUP3 DUP2 MSTORE PUSH1 0x1 PUSH1 0x20 MSTORE PUSH1 0x40 SWAP1 KECCAK256 PUSH1 0x4 DUP2 ADD SLOAD PUSH2 0x961 JUMPI PUSH1 0x40 MLOAD PUSH3 0x461BCD PUSH1 0xE5 SHL DUP2 MSTORE PUSH1 0x20 PUSH1 0x4 DUP3 ADD MSTORE PUSH1 0x1C PUSH1 0x24 DUP3 ADD MSTORE PUSH32 0x5468657265206973206E6F7468696E6720746F2072656C656173652100000000 PUSH1 0x44 DUP3 ADD MSTORE PUSH1 0x64 ADD PUSH2 0x12A JUMP JUMPDEST DUP1 PUSH1 0x3 ADD SLOAD DUP2 PUSH1 0x4 ADD SLOAD LT ISZERO PUSH2 0x9B2 JUMPI PUSH1 0x40 MLOAD PUSH3 0x461BCD PUSH1 0xE5 SHL DUP2 MSTORE PUSH1 0x20 PUSH1 0x4 DUP3 ADD MSTORE PUSH1 0x16 PUSH1 0x24 DUP3 ADD MSTORE PUSH22 0x476F616C20686173206E6F74206265656E206D657421 PUSH1 0x50 SHL PUSH1 0x44 DUP3 ADD MSTORE PUSH1 0x64 ADD PUSH2 0x12A JUMP JUMPDEST PUSH1 0x8 DUP2 ADD SLOAD PUSH1 0xFF AND ISZERO PUSH2 0xA07 JUMPI PUSH1 0x40 MLOAD PUSH3 0x461BCD PUSH1 0xE5 SHL DUP2 MSTORE PUSH1 0x20 PUSH1 0x4 DUP3 ADD MSTORE PUSH1 0x1B PUSH1 0x24 DUP3 ADD MSTORE PUSH32 0x43616D706169676E20616C726561647920636F6D706C65746564210000000000 PUSH1 0x44 DUP3 ADD MSTORE PUSH1 0x64 ADD PUSH2 0x12A JUMP JUMPDEST PUSH1 0x8 DUP2 ADD DUP1 SLOAD PUSH1 0xFF NOT AND PUSH1 0x1 OR SWAP1 SSTORE PUSH1 0x2 DUP2 ADD SLOAD PUSH1 0x4 DUP3 ADD SLOAD PUSH1 0x40 MLOAD PUSH1 0x0 SWAP3 PUSH1 0x1 PUSH1 0x1 PUSH1 0xA0 SHL SUB AND SWAP2 SWAP1 DUP4 DUP2 DUP2 DUP2 DUP6 DUP8 GAS CALL SWAP3 POP POP POP RETURNDATASIZE DUP1 PUSH1 0x0 DUP2 EQ PUSH2 0xA69 JUMPI PUSH1 0x40 MLOAD SWAP2 POP PUSH1 0x1F NOT PUSH1 0x3F RETURNDATASIZE ADD AND DUP3 ADD PUSH1 0x40 MSTORE RETURNDATASIZE DUP3 MSTORE RETURNDATASIZE PUSH1 0x0 PUSH1 0x20 DUP5 ADD RETURNDATACOPY PUSH2 0xA6E JUMP JUMPDEST PUSH1 0x60 SWAP2 POP JUMPDEST POP POP SWAP1 POP DUP1 PUSH2 0xAB6 JUMPI PUSH1 0x40 MLOAD PUSH3 0x461BCD PUSH1 0xE5 SHL DUP2 MSTORE PUSH1 0x20 PUSH1 0x4 DUP3 ADD MSTORE PUSH1 0x14 PUSH1 0x24 DUP3 ADD MSTORE PUSH20 0x4661696C656420746F2073656E642066756E6473 PUSH1 0x60 SHL PUSH1 0x44 DUP3 ADD MSTORE PUSH1 0x64 ADD PUSH2 0x12A JUMP JUMPDEST PUSH1 0x2 DUP3 ADD SLOAD PUSH1 0x4 DUP4 ADD SLOAD PUSH1 0x40 DUP1 MLOAD PUSH1 0x1 PUSH1 0x1 PUSH1 0xA0 SHL SUB SWAP1 SWAP4 AND DUP4 MSTORE PUSH1 0x20 DUP4 ADD SWAP2 SWAP1 SWAP2 MSTORE DUP6 SWAP2 PUSH32 0x6E3C6096795C8298A218B2CFB8BDE42726FF7C9A3D27B4D3BA41AB7F74FEB5FB SWAP2 ADD PUSH1 0x40 MLOAD DUP1 SWAP2 SUB SWAP1 LOG2 POP POP PUSH2 0xB12 PUSH1 0x1 PUSH1 0x0 SSTORE JUMP JUMPDEST POP POP JUMP JUMPDEST PUSH1 0x60 DUP1 PUSH1 0x0 DUP1 PUSH1 0x0 DUP1 PUSH1 0x0 DUP8 PUSH1 0x3 SLOAD DUP2 LT PUSH2 0xB43 JUMPI PUSH1 0x40 MLOAD PUSH3 0x461BCD PUSH1 0xE5 SHL DUP2 MSTORE PUSH1 0x4 ADD PUSH2 0x12A SWAP1 PUSH2 0x14A5 JUMP JUMPDEST PUSH1 0x0 DUP10 DUP2 MSTORE PUSH1 0x1 PUSH1 0x20 DUP2 SWAP1 MSTORE PUSH1 0x40 SWAP1 SWAP2 KECCAK256 PUSH1 0x2 DUP2 ADD SLOAD PUSH1 0x3 DUP3 ADD SLOAD PUSH1 0x4 DUP4 ADD SLOAD PUSH1 0x5 DUP5 ADD SLOAD PUSH1 0x8 DUP6 ADD SLOAD DUP6 SLOAD SWAP6 SWAP7 DUP8 SWAP7 SWAP1 DUP8 ADD SWAP6 PUSH1 0x1 PUSH1 0x1 PUSH1 0xA0 SHL SUB AND SWAP5 SWAP4 SWAP3 SWAP2 PUSH1 0xFF AND SWAP1 DUP8 SWAP1 PUSH2 0xB93 SWAP1 PUSH2 0x1296 JUMP JUMPDEST DUP1 PUSH1 0x1F ADD PUSH1 0x20 DUP1 SWAP2 DIV MUL PUSH1 0x20 ADD PUSH1 0x40 MLOAD SWAP1 DUP2 ADD PUSH1 0x40 MSTORE DUP1 SWAP3 SWAP2 SWAP1 DUP2 DUP2 MSTORE PUSH1 0x20 ADD DUP3 DUP1 SLOAD PUSH2 0xBBF SWAP1 PUSH2 0x1296 JUMP JUMPDEST DUP1 ISZERO PUSH2 0xC0C JUMPI DUP1 PUSH1 0x1F LT PUSH2 0xBE1 JUMPI PUSH2 0x100 DUP1 DUP4 SLOAD DIV MUL DUP4 MSTORE SWAP2 PUSH1 0x20 ADD SWAP2 PUSH2 0xC0C JUMP JUMPDEST DUP3 ADD SWAP2 SWAP1 PUSH1 0x0 MSTORE PUSH1 0x20 PUSH1 0x0 KECCAK256 SWAP1 JUMPDEST DUP2 SLOAD DUP2 MSTORE SWAP1 PUSH1 0x1 ADD SWAP1 PUSH1 0x20 ADD DUP1 DUP4 GT PUSH2 0xBEF JUMPI DUP3 SWAP1 SUB PUSH1 0x1F AND DUP3 ADD SWAP2 JUMPDEST POP POP POP POP POP SWAP7 POP DUP6 DUP1 SLOAD PUSH2 0xC1F SWAP1 PUSH2 0x1296 JUMP JUMPDEST DUP1 PUSH1 0x1F ADD PUSH1 0x20 DUP1 SWAP2 DIV MUL PUSH1 0x20 ADD PUSH1 0x40 MLOAD SWAP1 DUP2 ADD PUSH1 0x40 MSTORE DUP1 SWAP3 SWAP2 SWAP1 DUP2 DUP2 MSTORE PUSH1 0x20 ADD DUP3 DUP1 SLOAD PUSH2 0xC4B SWAP1 PUSH2 0x1296 JUMP JUMPDEST DUP1 ISZERO PUSH2 0xC98 JUMPI DUP1 PUSH1 0x1F LT PUSH2 0xC6D JUMPI PUSH2 0x100 DUP1 DUP4 SLOAD DIV MUL DUP4 MSTORE SWAP2 PUSH1 0x20 ADD SWAP2 PUSH2 0xC98 JUMP JUMPDEST DUP3 ADD SWAP2 SWAP1 PUSH1 0x0 MSTORE PUSH1 0x20 PUSH1 0x0 KECCAK256 SWAP1 JUMPDEST DUP2 SLOAD DUP2 MSTORE SWAP1 PUSH1 0x1 ADD SWAP1 PUSH1 0x20 ADD DUP1 DUP4 GT PUSH2 0xC7B JUMPI DUP3 SWAP1 SUB PUSH1 0x1F AND DUP3 ADD SWAP2 JUMPDEST POP POP POP POP POP SWAP6 POP SWAP9 POP SWAP9 POP SWAP9 POP SWAP9 POP SWAP9 POP SWAP9 POP SWAP9 POP POP POP SWAP2 SWAP4 SWAP6 SWAP8 SWAP1 SWAP3 SWAP5 SWAP7 POP JUMP JUMPDEST CALLER PUSH1 0x0 SWAP1 DUP2 MSTORE PUSH1 0x2 PUSH1 0x20 MSTORE PUSH1 0x40 SWAP1 KECCAK256 SLOAD PUSH1 0xFF AND PUSH2 0xCE9 JUMPI PUSH1 0x40 MLOAD PUSH3 0x461BCD PUSH1 0xE5 SHL DUP2 MSTORE PUSH1 0x4 ADD PUSH2 0x12A SWAP1 PUSH2 0x12CA JUMP JUMPDEST DUP1 PUSH1 0x1 PUSH1 0x1 PUSH1 0xA0 SHL SUB DUP2 AND PUSH2 0xD10 JUMPI PUSH1 0x40 MLOAD PUSH3 0x461BCD PUSH1 0xE5 SHL DUP2 MSTORE PUSH1 0x4 ADD PUSH2 0x12A SWAP1 PUSH2 0x130C JUMP JUMPDEST PUSH1 0x1 PUSH1 0x1 PUSH1 0xA0 SHL SUB DUP3 AND PUSH1 0x0 SWAP1 DUP2 MSTORE PUSH1 0x2 PUSH1 0x20 MSTORE PUSH1 0x40 SWAP1 KECCAK256 SLOAD PUSH1 0xFF AND ISZERO PUSH2 0xD79 JUMPI PUSH1 0x40 MLOAD PUSH3 0x461BCD PUSH1 0xE5 SHL DUP2 MSTORE PUSH1 0x20 PUSH1 0x4 DUP3 ADD MSTORE PUSH1 0x1D PUSH1 0x24 DUP3 ADD MSTORE PUSH32 0x546865207573657220697320616C726561647920616E2061646D696E21000000 PUSH1 0x44 DUP3 ADD MSTORE PUSH1 0x64 ADD PUSH2 0x12A JUMP JUMPDEST POP PUSH1 0x1 PUSH1 0x1 PUSH1 0xA0 SHL SUB AND PUSH1 0x0 SWAP1 DUP2 MSTORE PUSH1 0x2 PUSH1 0x20 MSTORE PUSH1 0x40 SWAP1 KECCAK256 DUP1 SLOAD PUSH1 0xFF NOT AND PUSH1 0x1 OR SWAP1 SSTORE JUMP JUMPDEST PUSH1 0x0 DUP3 PUSH1 0x3 SLOAD DUP2 LT PUSH2 0xDC2 JUMPI PUSH1 0x40 MLOAD PUSH3 0x461BCD PUSH1 0xE5 SHL DUP2 MSTORE PUSH1 0x4 ADD PUSH2 0x12A SWAP1 PUSH2 0x14A5 JUMP JUMPDEST POP POP PUSH1 0x0 SWAP2 DUP3 MSTORE PUSH1 0x1 PUSH1 0x20 SWAP1 DUP2 MSTORE PUSH1 0x40 DUP1 DUP5 KECCAK256 PUSH1 0x1 PUSH1 0x1 PUSH1 0xA0 SHL SUB SWAP4 SWAP1 SWAP4 AND DUP5 MSTORE PUSH1 0x7 SWAP1 SWAP3 ADD SWAP1 MSTORE SWAP1 KECCAK256 SLOAD SWAP1 JUMP JUMPDEST CALLVALUE PUSH1 0x0 DUP2 GT PUSH2 0xE4C JUMPI PUSH1 0x40 MLOAD PUSH3 0x461BCD PUSH1 0xE5 SHL DUP2 MSTORE PUSH1 0x20 PUSH1 0x4 DUP3 ADD MSTORE PUSH1 0x22 PUSH1 0x24 DUP3 ADD MSTORE PUSH32 0x446F6E6174696F6E206D7573742062652067726561746572207468616E207A65 PUSH1 0x44 DUP3 ADD MSTORE PUSH2 0x726F PUSH1 0xF0 SHL PUSH1 0x64 DUP3 ADD MSTORE PUSH1 0x84 ADD PUSH2 0x12A JUMP JUMPDEST DUP2 PUSH1 0x3 SLOAD DUP2 LT PUSH2 0xE6E JUMPI PUSH1 0x40 MLOAD PUSH3 0x461BCD PUSH1 0xE5 SHL DUP2 MSTORE PUSH1 0x4 ADD PUSH2 0x12A SWAP1 PUSH2 0x14A5 JUMP JUMPDEST PUSH2 0xE76 PUSH2 0xFD6 JUMP JUMPDEST PUSH1 0x0 DUP4 DUP2 MSTORE PUSH1 0x1 PUSH1 0x20 MSTORE PUSH1 0x40 SWAP1 KECCAK256 PUSH1 0x8 DUP2 ADD SLOAD PUSH1 0xFF AND ISZERO PUSH2 0xED2 JUMPI PUSH1 0x40 MLOAD PUSH3 0x461BCD PUSH1 0xE5 SHL DUP2 MSTORE PUSH1 0x20 PUSH1 0x4 DUP3 ADD MSTORE PUSH1 0x16 PUSH1 0x24 DUP3 ADD MSTORE PUSH22 0x43616D706169676E20697320636F6D706C6574656421 PUSH1 0x50 SHL PUSH1 0x44 DUP3 ADD MSTORE PUSH1 0x64 ADD PUSH2 0x12A JUMP JUMPDEST CALLER PUSH1 0x0 SWAP1 DUP2 MSTORE PUSH1 0x7 DUP3 ADD PUSH1 0x20 MSTORE PUSH1 0x40 DUP2 KECCAK256 SLOAD SWAP1 SUB PUSH2 0xF12 JUMPI PUSH1 0x6 DUP2 ADD DUP1 SLOAD PUSH1 0x1 DUP2 ADD DUP3 SSTORE PUSH1 0x0 SWAP2 DUP3 MSTORE PUSH1 0x20 SWAP1 SWAP2 KECCAK256 ADD DUP1 SLOAD PUSH1 0x1 PUSH1 0x1 PUSH1 0xA0 SHL SUB NOT AND CALLER OR SWAP1 SSTORE JUMPDEST CALLVALUE DUP2 PUSH1 0x4 ADD PUSH1 0x0 DUP3 DUP3 SLOAD PUSH2 0xF26 SWAP2 SWAP1 PUSH2 0x14EA JUMP JUMPDEST SWAP1 SWAP2 SSTORE POP POP CALLER PUSH1 0x0 SWAP1 DUP2 MSTORE PUSH1 0x7 DUP3 ADD PUSH1 0x20 MSTORE PUSH1 0x40 DUP2 KECCAK256 DUP1 SLOAD CALLVALUE SWAP3 SWAP1 PUSH2 0xF4C SWAP1 DUP5 SWAP1 PUSH2 0x14EA JUMP JUMPDEST SWAP1 SWAP2 SSTORE POP POP PUSH1 0x40 DUP1 MLOAD CALLER DUP2 MSTORE CALLVALUE PUSH1 0x20 DUP3 ADD MSTORE DUP6 SWAP2 PUSH32 0xB5B4C52969FF7329ECF7EE536409FDA87812B15A8622BC6E8CDEAB3AEE14A26 SWAP2 ADD PUSH1 0x40 MLOAD DUP1 SWAP2 SUB SWAP1 LOG2 DUP1 PUSH1 0x3 ADD SLOAD DUP2 PUSH1 0x4 ADD SLOAD LT PUSH2 0xFC6 JUMPI PUSH1 0x40 MLOAD DUP5 SWAP1 PUSH32 0x4ACDEF45FD55BA3AD13C840B8650488E3312E0CDC273791C0793506124001231 SWAP1 PUSH1 0x0 SWAP1 LOG2 JUMPDEST POP PUSH2 0xFD1 PUSH1 0x1 PUSH1 0x0 SSTORE JUMP JUMPDEST POP POP POP JUMP JUMPDEST PUSH1 0x2 PUSH1 0x0 SLOAD SUB PUSH2 0xFF9 JUMPI PUSH1 0x40 MLOAD PUSH4 0x3EE5AEB5 PUSH1 0xE0 SHL DUP2 MSTORE PUSH1 0x4 ADD PUSH1 0x40 MLOAD DUP1 SWAP2 SUB SWAP1 REVERT JUMPDEST PUSH1 0x2 PUSH1 0x0 SSTORE JUMP JUMPDEST PUSH1 0x0 PUSH1 0x20 DUP3 DUP5 SUB SLT ISZERO PUSH2 0x1012 JUMPI PUSH1 0x0 DUP1 REVERT JUMPDEST POP CALLDATALOAD SWAP2 SWAP1 POP JUMP JUMPDEST PUSH1 0x0 DUP2 MLOAD DUP1 DUP5 MSTORE PUSH1 0x0 JUMPDEST DUP2 DUP2 LT ISZERO PUSH2 0x103F JUMPI PUSH1 0x20 DUP2 DUP6 ADD DUP2 ADD MLOAD DUP7 DUP4 ADD DUP3 ADD MSTORE ADD PUSH2 0x1023 JUMP JUMPDEST POP PUSH1 0x0 PUSH1 0x20 DUP3 DUP7 ADD ADD MSTORE PUSH1 0x20 PUSH1 0x1F NOT PUSH1 0x1F DUP4 ADD AND DUP6 ADD ADD SWAP2 POP POP SWAP3 SWAP2 POP POP JUMP JUMPDEST PUSH1 0xE0 DUP2 MSTORE PUSH1 0x0 PUSH2 0x1072 PUSH1 0xE0 DUP4 ADD DUP11 PUSH2 0x1019 JUMP JUMPDEST DUP3 DUP2 SUB PUSH1 0x20 DUP5 ADD MSTORE PUSH2 0x1084 DUP2 DUP11 PUSH2 0x1019 JUMP JUMPDEST PUSH1 0x1 PUSH1 0x1 PUSH1 0xA0 SHL SUB SWAP9 SWAP1 SWAP9 AND PUSH1 0x40 DUP5 ADD MSTORE POP POP PUSH1 0x60 DUP2 ADD SWAP5 SWAP1 SWAP5 MSTORE PUSH1 0x80 DUP5 ADD SWAP3 SWAP1 SWAP3 MSTORE PUSH1 0xA0 DUP4 ADD MSTORE ISZERO ISZERO PUSH1 0xC0 SWAP1 SWAP2 ADD MSTORE SWAP3 SWAP2 POP POP JUMP JUMPDEST DUP1 CALLDATALOAD PUSH1 0x1 PUSH1 0x1 PUSH1 0xA0 SHL SUB DUP2 AND DUP2 EQ PUSH2 0x10D1 JUMPI PUSH1 0x0 DUP1 REVERT JUMPDEST SWAP2 SWAP1 POP JUMP JUMPDEST PUSH1 0x0 PUSH1 0x20 DUP3 DUP5 SUB SLT ISZERO PUSH2 0x10E8 JUMPI PUSH1 0x0 DUP1 REVERT JUMPDEST PUSH2 0x10F1 DUP3 PUSH2 0x10BA JUMP JUMPDEST SWAP4 SWAP3 POP POP POP JUMP JUMPDEST PUSH4 0x4E487B71 PUSH1 0xE0 SHL PUSH1 0x0 MSTORE PUSH1 0x41 PUSH1 0x4 MSTORE PUSH1 0x24 PUSH1 0x0 REVERT JUMPDEST PUSH1 0x0 DUP3 PUSH1 0x1F DUP4 ADD SLT PUSH2 0x111F JUMPI PUSH1 0x0 DUP1 REVERT JUMPDEST DUP2 CALLDATALOAD PUSH8 0xFFFFFFFFFFFFFFFF DUP2 GT ISZERO PUSH2 0x1139 JUMPI PUSH2 0x1139 PUSH2 0x10F8 JUMP JUMPDEST PUSH1 0x40 MLOAD PUSH1 0x1F DUP3 ADD PUSH1 0x1F NOT SWAP1 DUP2 AND PUSH1 0x3F ADD AND DUP2 ADD PUSH8 0xFFFFFFFFFFFFFFFF DUP2 GT DUP3 DUP3 LT OR ISZERO PUSH2 0x1168 JUMPI PUSH2 0x1168 PUSH2 0x10F8 JUMP JUMPDEST PUSH1 0x40 MSTORE DUP2 DUP2 MSTORE DUP4 DUP3 ADD PUSH1 0x20 ADD DUP6 LT ISZERO PUSH2 0x1180 JUMPI PUSH1 0x0 DUP1 REVERT JUMPDEST DUP2 PUSH1 0x20 DUP6 ADD PUSH1 0x20 DUP4 ADD CALLDATACOPY PUSH1 0x0 SWAP2 DUP2 ADD PUSH1 0x20 ADD SWAP2 SWAP1 SWAP2 MSTORE SWAP4 SWAP3 POP POP POP JUMP JUMPDEST PUSH1 0x0 DUP1 PUSH1 0x0 DUP1 PUSH1 0x80 DUP6 DUP8 SUB SLT ISZERO PUSH2 0x11B3 JUMPI PUSH1 0x0 DUP1 REVERT JUMPDEST DUP5 CALLDATALOAD PUSH8 0xFFFFFFFFFFFFFFFF DUP2 GT ISZERO PUSH2 0x11CA JUMPI PUSH1 0x0 DUP1 REVERT JUMPDEST PUSH2 0x11D6 DUP8 DUP3 DUP9 ADD PUSH2 0x110E JUMP JUMPDEST SWAP5 POP POP PUSH1 0x20 DUP6 ADD CALLDATALOAD PUSH8 0xFFFFFFFFFFFFFFFF DUP2 GT ISZERO PUSH2 0x11F3 JUMPI PUSH1 0x0 DUP1 REVERT JUMPDEST PUSH2 0x11FF DUP8 DUP3 DUP9 ADD PUSH2 0x110E JUMP JUMPDEST SWAP4 POP POP PUSH2 0x120E PUSH1 0x40 DUP7 ADD PUSH2 0x10BA JUMP JUMPDEST SWAP4 SWAP7 SWAP3 SWAP6 POP SWAP3 SWAP4 PUSH1 0x60 ADD CALLDATALOAD SWAP3 POP POP JUMP JUMPDEST PUSH1 0x20 DUP1 DUP3 MSTORE DUP3 MLOAD DUP3 DUP3 ADD DUP2 SWAP1 MSTORE PUSH1 0x0 SWAP2 DUP5 ADD SWAP1 PUSH1 0x40 DUP5 ADD SWAP1 DUP4 JUMPDEST DUP2 DUP2 LT ISZERO PUSH2 0x125F JUMPI DUP4 MLOAD PUSH1 0x1 PUSH1 0x1 PUSH1 0xA0 SHL SUB AND DUP4 MSTORE PUSH1 0x20 SWAP4 DUP5 ADD SWAP4 SWAP1 SWAP3 ADD SWAP2 PUSH1 0x1 ADD PUSH2 0x1238 JUMP JUMPDEST POP SWAP1 SWAP6 SWAP5 POP POP POP POP POP JUMP JUMPDEST PUSH1 0x0 DUP1 PUSH1 0x40 DUP4 DUP6 SUB SLT ISZERO PUSH2 0x127D JUMPI PUSH1 0x0 DUP1 REVERT JUMPDEST DUP3 CALLDATALOAD SWAP2 POP PUSH2 0x128D PUSH1 0x20 DUP5 ADD PUSH2 0x10BA JUMP JUMPDEST SWAP1 POP SWAP3 POP SWAP3 SWAP1 POP JUMP JUMPDEST PUSH1 0x1 DUP2 DUP2 SHR SWAP1 DUP3 AND DUP1 PUSH2 0x12AA JUMPI PUSH1 0x7F DUP3 AND SWAP2 POP JUMPDEST PUSH1 0x20 DUP3 LT DUP2 SUB PUSH2 0x7B0 JUMPI PUSH4 0x4E487B71 PUSH1 0xE0 SHL PUSH1 0x0 MSTORE PUSH1 0x22 PUSH1 0x4 MSTORE PUSH1 0x24 PUSH1 0x0 REVERT JUMPDEST PUSH1 0x20 DUP1 DUP3 MSTORE PUSH1 0x22 SWAP1 DUP3 ADD MSTORE PUSH32 0x4F6E6C792061646D696E2063616E20706572666F726D20746869732061637469 PUSH1 0x40 DUP3 ADD MSTORE PUSH2 0x37B7 PUSH1 0xF1 SHL PUSH1 0x60 DUP3 ADD MSTORE PUSH1 0x80 ADD SWAP1 JUMP JUMPDEST PUSH1 0x20 DUP1 DUP3 MSTORE PUSH1 0x10 SWAP1 DUP3 ADD MSTORE PUSH16 0x496E76616C6964206164647265737321 PUSH1 0x80 SHL PUSH1 0x40 DUP3 ADD MSTORE PUSH1 0x60 ADD SWAP1 JUMP JUMPDEST PUSH1 0x1F DUP3 GT ISZERO PUSH2 0xFD1 JUMPI DUP1 PUSH1 0x0 MSTORE PUSH1 0x20 PUSH1 0x0 KECCAK256 PUSH1 0x1F DUP5 ADD PUSH1 0x5 SHR DUP2 ADD PUSH1 0x20 DUP6 LT ISZERO PUSH2 0x135D JUMPI POP DUP1 JUMPDEST PUSH1 0x1F DUP5 ADD PUSH1 0x5 SHR DUP3 ADD SWAP2 POP JUMPDEST DUP2 DUP2 LT ISZERO PUSH2 0x137D JUMPI PUSH1 0x0 DUP2 SSTORE PUSH1 0x1 ADD PUSH2 0x1369 JUMP JUMPDEST POP POP POP POP POP JUMP JUMPDEST DUP2 MLOAD PUSH8 0xFFFFFFFFFFFFFFFF DUP2 GT ISZERO PUSH2 0x139E JUMPI PUSH2 0x139E PUSH2 0x10F8 JUMP JUMPDEST PUSH2 0x13B2 DUP2 PUSH2 0x13AC DUP5 SLOAD PUSH2 0x1296 JUMP JUMPDEST DUP5 PUSH2 0x1336 JUMP JUMPDEST PUSH1 0x20 PUSH1 0x1F DUP3 GT PUSH1 0x1 DUP2 EQ PUSH2 0x13E6 JUMPI PUSH1 0x0 DUP4 ISZERO PUSH2 0x13CE JUMPI POP DUP5 DUP3 ADD MLOAD JUMPDEST PUSH1 0x0 NOT PUSH1 0x3 DUP6 SWAP1 SHL SHR NOT AND PUSH1 0x1 DUP5 SWAP1 SHL OR DUP5 SSTORE PUSH2 0x137D JUMP JUMPDEST PUSH1 0x0 DUP5 DUP2 MSTORE PUSH1 0x20 DUP2 KECCAK256 PUSH1 0x1F NOT DUP6 AND SWAP2 JUMPDEST DUP3 DUP2 LT ISZERO PUSH2 0x1416 JUMPI DUP8 DUP6 ADD MLOAD DUP3 SSTORE PUSH1 0x20 SWAP5 DUP6 ADD SWAP5 PUSH1 0x1 SWAP1 SWAP3 ADD SWAP2 ADD PUSH2 0x13F6 JUMP JUMPDEST POP DUP5 DUP3 LT ISZERO PUSH2 0x1434 JUMPI DUP7 DUP5 ADD MLOAD PUSH1 0x0 NOT PUSH1 0x3 DUP8 SWAP1 SHL PUSH1 0xF8 AND SHR NOT AND DUP2 SSTORE JUMPDEST POP POP POP POP PUSH1 0x1 SWAP1 DUP2 SHL ADD SWAP1 SSTORE POP JUMP JUMPDEST PUSH1 0x60 DUP2 MSTORE PUSH1 0x0 PUSH2 0x1456 PUSH1 0x60 DUP4 ADD DUP7 PUSH2 0x1019 JUMP JUMPDEST PUSH1 0x20 DUP4 ADD SWAP5 SWAP1 SWAP5 MSTORE POP PUSH1 0x1 PUSH1 0x1 PUSH1 0xA0 SHL SUB SWAP2 SWAP1 SWAP2 AND PUSH1 0x40 SWAP1 SWAP2 ADD MSTORE SWAP2 SWAP1 POP JUMP JUMPDEST PUSH4 0x4E487B71 PUSH1 0xE0 SHL PUSH1 0x0 MSTORE PUSH1 0x11 PUSH1 0x4 MSTORE PUSH1 0x24 PUSH1 0x0 REVERT JUMPDEST PUSH1 0x0 PUSH1 0x1 DUP3 ADD PUSH2 0x149E JUMPI PUSH2 0x149E PUSH2 0x1476 JUMP JUMPDEST POP PUSH1 0x1 ADD SWAP1 JUMP JUMPDEST PUSH1 0x20 DUP1 DUP3 MSTORE PUSH1 0x25 SWAP1 DUP3 ADD MSTORE PUSH32 0x43616D706169676E2077697468207468697320494420646F6573206E6F742065 PUSH1 0x40 DUP3 ADD MSTORE PUSH5 0x7869737421 PUSH1 0xD8 SHL PUSH1 0x60 DUP3 ADD MSTORE PUSH1 0x80 ADD SWAP1 JUMP JUMPDEST DUP1 DUP3 ADD DUP1 DUP3 GT ISZERO PUSH2 0x14FD JUMPI PUSH2 0x14FD PUSH2 0x1476 JUMP JUMPDEST SWAP3 SWAP2 POP POP JUMP INVALID LOG2 PUSH5 0x6970667358 0x22 SLT KECCAK256 SMOD JUMPDEST CALLCODE 0xBA PUSH8 0x2F481E11B1A23572 0xE2 BYTE BLOBHASH MLOAD 0xBC 0x4D DUP6 0xEE 0xB4 0xBA 0xA6 SELFDESTRUCT PUSH10 0xAF71B37023E064736F6C PUSH4 0x4300081C STOP CALLER "
        },
        "methodIdentifiers": {
          "addAdmin(address)": "70480275",
          "campaignCount()": "7274e30d",
          "campaigns(uint256)": "141961bc",
          "cancelCampaign(uint256)": "45598b4a",
          "createCampaign(string,string,address,uint256)": "1d921f62",
          "donate(uint256)": "f14faf6f",
          "getCampaign(uint256)": "5598f8cc",
          "getCampaignCount()": "6caa9218",
          "getDonationAmountByDonor(uint256,address)": "72611b96",
          "getDonors(uint256)": "29516511",
          "isAdmin(address)": "24d7806c",
          "isAdminStatus(address)": "8f88743b",
          "releaseFunds(uint256)": "4d68282f",
          "removeAdmin(address)": "1785f53c"
        }
      }
    }
  }
}