{
  "_format": "hh-sol-artifact-1",
  "contractName": "Charity",
  "sourceName": "contracts/Charity.sol",
  "abi": [
    {
      "inputs": [],
      "stateMutability": "nonpayable",
      "type": "constructor"
    },
    {
      "inputs": [],
      "name": "ReentrancyGuardReentrantCall",
      "type": "error"
    },
    {
      "anonymous": false,
      "inputs": [
        {
          "indexed": true,
          "internalType": "uint256",
          "name": "campaignId",
          "type": "uint256"
        }
      ],
      "name": "CampaignCanceled",
      "type": "event"
    },
    {
      "anonymous": false,
      "inputs": [
        {
          "indexed": true,
          "internalType": "uint256",
          "name": "campaignId",
          "type": "uint256"
        },
        {
          "indexed": false,
          "internalType": "string",
          "name": "title",
          "type": "string"
        },
        {
          "indexed": false,
          "internalType": "uint256",
          "name": "goal",
          "type": "uint256"
        },
        {
          "indexed": false,
          "internalType": "address",
          "name": "recipient",
          "type": "address"
        }
      ],
      "name": "CampaignCreated",
      "type": "event"
    },
    {
      "anonymous": false,
      "inputs": [
        {
          "indexed": true,
          "internalType": "uint256",
          "name": "campaignId",
          "type": "uint256"
        },
        {
          "indexed": false,
          "internalType": "address",
          "name": "donor",
          "type": "address"
        },
        {
          "indexed": false,
          "internalType": "uint256",
          "name": "amount",
          "type": "uint256"
        }
      ],
      "name": "DonationReceived",
      "type": "event"
    },
    {
      "anonymous": false,
      "inputs": [
        {
          "indexed": true,
          "internalType": "uint256",
          "name": "campaignId",
          "type": "uint256"
        },
        {
          "indexed": false,
          "internalType": "address",
          "name": "recipient",
          "type": "address"
        },
        {
          "indexed": false,
          "internalType": "uint256",
          "name": "total",
          "type": "uint256"
        }
      ],
      "name": "FundsReleased",
      "type": "event"
    },
    {
      "anonymous": false,
      "inputs": [
        {
          "indexed": true,
          "internalType": "uint256",
          "name": "campaignId",
          "type": "uint256"
        }
      ],
      "name": "goalMet",
      "type": "event"
    },
    {
      "inputs": [
        {
          "internalType": "address",
          "name": "_newAdmin",
          "type": "address"
        }
      ],
      "name": "addAdmin",
      "outputs": [],
      "stateMutability": "nonpayable",
      "type": "function"
    },
    {
      "inputs": [],
      "name": "campaignCount",
      "outputs": [
        {
          "internalType": "uint256",
          "name": "",
          "type": "uint256"
        }
      ],
      "stateMutability": "view",
      "type": "function"
    },
    {
      "inputs": [
        {
          "internalType": "uint256",
          "name": "",
          "type": "uint256"
        }
      ],
      "name": "campaigns",
      "outputs": [
        {
          "internalType": "string",
          "name": "title",
          "type": "string"
        },
        {
          "internalType": "string",
          "name": "description",
          "type": "string"
        },
        {
          "internalType": "address",
          "name": "recipient",
          "type": "address"
        },
        {
          "internalType": "uint256",
          "name": "goal",
          "type": "uint256"
        },
        {
          "internalType": "uint256",
          "name": "totalDonated",
          "type": "uint256"
        },
        {
          "internalType": "uint256",
          "name": "creationTime",
          "type": "uint256"
        },
        {
          "internalType": "bool",
          "name": "isCompleted",
          "type": "bool"
        }
      ],
      "stateMutability": "view",
      "type": "function"
    },
    {
      "inputs": [
        {
          "internalType": "uint256",
          "name": "_campaignId",
          "type": "uint256"
        }
      ],
      "name": "cancelCampaign",
      "outputs": [],
      "stateMutability": "nonpayable",
      "type": "function"
    },
    {
      "inputs": [
        {
          "internalType": "string",
          "name": "_title",
          "type": "string"
        },
        {
          "internalType": "string",
          "name": "_description",
          "type": "string"
        },
        {
          "internalType": "address",
          "name": "_recipient",
          "type": "address"
        },
        {
          "internalType": "uint256",
          "name": "_goal",
          "type": "uint256"
        }
      ],
      "name": "createCampaign",
      "outputs": [],
      "stateMutability": "nonpayable",
      "type": "function"
    },
    {
      "inputs": [
        {
          "internalType": "uint256",
          "name": "_campaignId",
          "type": "uint256"
        }
      ],
      "name": "donate",
      "outputs": [],
      "stateMutability": "payable",
      "type": "function"
    },
    {
      "inputs": [
        {
          "internalType": "uint256",
          "name": "_id",
          "type": "uint256"
        }
      ],
      "name": "getCampaign",
      "outputs": [
        {
          "internalType": "string",
          "name": "title",
          "type": "string"
        },
        {
          "internalType": "string",
          "name": "description",
          "type": "string"
        },
        {
          "internalType": "address",
          "name": "recipient",
          "type": "address"
        },
        {
          "internalType": "uint256",
          "name": "goal",
          "type": "uint256"
        },
        {
          "internalType": "uint256",
          "name": "totalDonated",
          "type": "uint256"
        },
        {
          "internalType": "uint256",
          "name": "creationTime",
          "type": "uint256"
        },
        {
          "internalType": "bool",
          "name": "isCompleted",
          "type": "bool"
        }
      ],
      "stateMutability": "view",
      "type": "function"
    },
    {
      "inputs": [],
      "name": "getCampaignCount",
      "outputs": [
        {
          "internalType": "uint256",
          "name": "",
          "type": "uint256"
        }
      ],
      "stateMutability": "view",
      "type": "function"
    },
    {
      "inputs": [
        {
          "internalType": "uint256",
          "name": "_campaignId",
          "type": "uint256"
        },
        {
          "internalType": "address",
          "name": "_donor",
          "type": "address"
        }
      ],
      "name": "getDonationAmountByDonor",
      "outputs": [
        {
          "internalType": "uint256",
          "name": "",
          "type": "uint256"
        }
      ],
      "stateMutability": "view",
      "type": "function"
    },
    {
      "inputs": [
        {
          "internalType": "uint256",
          "name": "_campaignId",
          "type": "uint256"
        }
      ],
      "name": "getDonors",
      "outputs": [
        {
          "internalType": "address[]",
          "name": "",
          "type": "address[]"
        }
      ],
      "stateMutability": "view",
      "type": "function"
    },
    {
      "inputs": [
        {
          "internalType": "address",
          "name": "",
          "type": "address"
        }
      ],
      "name": "isAdmin",
      "outputs": [
        {
          "internalType": "bool",
          "name": "",
          "type": "bool"
        }
      ],
      "stateMutability": "view",
      "type": "function"
    },
    {
      "inputs": [
        {
          "internalType": "address",
          "name": "_user",
          "type": "address"
        }
      ],
      "name": "isAdminStatus",
      "outputs": [
        {
          "internalType": "bool",
          "name": "",
          "type": "bool"
        }
      ],
      "stateMutability": "view",
      "type": "function"
    },
    {
      "inputs": [
        {
          "internalType": "uint256",
          "name": "_campaignId",
          "type": "uint256"
        }
      ],
      "name": "releaseFunds",
      "outputs": [],
      "stateMutability": "nonpayable",
      "type": "function"
    },
    {
      "inputs": [
        {
          "internalType": "address",
          "name": "_admin",
          "type": "address"
        }
      ],
      "name": "removeAdmin",
      "outputs": [],
      "stateMutability": "nonpayable",
      "type": "function"
    },
    {
      "stateMutability": "payable",
      "type": "receive"
    }
  ],
  "bytecode": "0x6080604052348015600f57600080fd5b5060016000818155338152600260205260409020805460ff191690911790556115398061003d6000396000f3fe6080604052600436106100e15760003560e01c80635598f8cc1161007f57806372611b961161005957806372611b96146102c25780637274e30d146102e25780638f88743b146102f8578063f14faf6f1461033157600080fd5b80635598f8cc146102635780636caa92181461028357806370480275146102a257600080fd5b806324d7806c116100bb57806324d7806c146101b657806329516511146101f657806345598b4a146102235780634d68282f1461024357600080fd5b8063141961bc146101385780631785f53c146101745780631d921f621461019657600080fd5b366101335760405162461bcd60e51b815260206004820152601c60248201527f446972656374206465706f73697473206e6f7420616c6c6f776564210000000060448201526064015b60405180910390fd5b600080fd5b34801561014457600080fd5b50610158610153366004611000565b610344565b60405161016b979695949392919061105f565b60405180910390f35b34801561018057600080fd5b5061019461018f3660046110d6565b61049c565b005b3480156101a257600080fd5b506101946101b136600461119d565b61057c565b3480156101c257600080fd5b506101e66101d13660046110d6565b60026020526000908152604090205460ff1681565b604051901515815260200161016b565b34801561020257600080fd5b50610216610211366004611000565b610723565b60405161016b919061121e565b34801561022f57600080fd5b5061019461023e366004611000565b6107b6565b34801561024f57600080fd5b5061019461025e366004611000565b6108a9565b34801561026f57600080fd5b5061015861027e366004611000565b610b16565b34801561028f57600080fd5b506003545b60405190815260200161016b565b3480156102ae57600080fd5b506101946102bd3660046110d6565b610cba565b3480156102ce57600080fd5b506102946102dd36600461126a565b610d9e565b3480156102ee57600080fd5b5061029460035481565b34801561030457600080fd5b506101e66103133660046110d6565b6001600160a01b031660009081526002602052604090205460ff1690565b61019461033f366004611000565b610df0565b60016020526000908152604090208054819061035f90611296565b80601f016020809104026020016040519081016040528092919081815260200182805461038b90611296565b80156103d85780601f106103ad576101008083540402835291602001916103d8565b820191906000526020600020905b8154815290600101906020018083116103bb57829003601f168201915b5050505050908060010180546103ed90611296565b80601f016020809104026020016040519081016040528092919081815260200182805461041990611296565b80156104665780601f1061043b57610100808354040283529160200191610466565b820191906000526020600020905b81548152906001019060200180831161044957829003601f168201915b505050600284015460038501546004860154600587015460089097015495966001600160a01b0390931695919450925060ff1687565b3360009081526002602052604090205460ff166104cb5760405162461bcd60e51b815260040161012a906112ca565b806001600160a01b0381166104f25760405162461bcd60e51b815260040161012a9061130c565b6001600160a01b03821660009081526002602052604090205460ff1661055a5760405162461bcd60e51b815260206004820152601960248201527f5468652075736572206973206e6f7420616e2061646d696e2100000000000000604482015260640161012a565b506001600160a01b03166000908152600260205260409020805460ff19169055565b3360009081526002602052604090205460ff166105ab5760405162461bcd60e51b815260040161012a906112ca565b816001600160a01b0381166105d25760405162461bcd60e51b815260040161012a9061130c565b84516000036106145760405162461bcd60e51b815260206004820152600e60248201526d496e76616c6964207469746c652160901b604482015260640161012a565b600082116106645760405162461bcd60e51b815260206004820152601e60248201527f476f616c206d757374206265206120706f7369746976652076616c7565210000604482015260640161012a565b600354600090815260016020819052604090912042600582015590810161068b8682611384565b506003810183905560088101805460ff191690556002810180546001600160a01b0319166001600160a01b038616179055806106c78782611384565b506003547f6fc7a1de3ccfc251acab8f2f41819123cd49f5da653ad8e7d5ca2f5e8ff765728785876040516106fe93929190611443565b60405180910390a2600380549060006107168361148c565b9190505550505050505050565b60608160035481106107475760405162461bcd60e51b815260040161012a906114a5565b600083815260016020908152604091829020600601805483518184028101840190945280845290918301828280156107a857602002820191906000526020600020905b81546001600160a01b0316815260019091019060200180831161078a575b505050505091505b50919050565b3360009081526002602052604090205460ff166107e55760405162461bcd60e51b815260040161012a906112ca565b8060035481106108075760405162461bcd60e51b815260040161012a906114a5565b6000828152600160205260409020600881015460ff161561086a5760405162461bcd60e51b815260206004820152601e60248201527f43616d706169676e20697320616c726561647920636f6d706c65746564210000604482015260640161012a565b60088101805460ff1916600117905560405183907f1925581c2be6a6ef3cd786635d86c841eb4bbdb051dce32356a44c457d03499890600090a2505050565b8060035481106108cb5760405162461bcd60e51b815260040161012a906114a5565b3360009081526002602052604090205460ff166108fa5760405162461bcd60e51b815260040161012a906112ca565b610902610fd6565b600082815260016020526040902060048101546109615760405162461bcd60e51b815260206004820152601c60248201527f5468657265206973206e6f7468696e6720746f2072656c656173652100000000604482015260640161012a565b8060030154816004015410156109b25760405162461bcd60e51b8152602060048201526016602482015275476f616c20686173206e6f74206265656e206d65742160501b604482015260640161012a565b600881015460ff1615610a075760405162461bcd60e51b815260206004820152601b60248201527f43616d706169676e20616c726561647920636f6d706c65746564210000000000604482015260640161012a565b60088101805460ff19166001179055600281015460048201546040516000926001600160a01b031691908381818185875af1925050503d8060008114610a69576040519150601f19603f3d011682016040523d82523d6000602084013e610a6e565b606091505b5050905080610ab65760405162461bcd60e51b81526020600482015260146024820152734661696c656420746f2073656e642066756e647360601b604482015260640161012a565b60028201546004830154604080516001600160a01b039093168352602083019190915285917f6e3c6096795c8298a218b2cfb8bde42726ff7c9a3d27b4d3ba41ab7f74feb5fb910160405180910390a25050610b126001600055565b5050565b6060806000806000806000876003548110610b435760405162461bcd60e51b815260040161012a906114a5565b600089815260016020819052604090912060028101546003820154600483015460058401546008850154855495968796908701956001600160a01b03169493929160ff16908790610b9390611296565b80601f0160208091040260200160405190810160405280929190818152602001828054610bbf90611296565b8015610c0c5780601f10610be157610100808354040283529160200191610c0c565b820191906000526020600020905b815481529060010190602001808311610bef57829003601f168201915b50505050509650858054610c1f90611296565b80601f0160208091040260200160405190810160405280929190818152602001828054610c4b90611296565b8015610c985780601f10610c6d57610100808354040283529160200191610c98565b820191906000526020600020905b815481529060010190602001808311610c7b57829003601f168201915b5050505050955098509850985098509850985098505050919395979092949650565b3360009081526002602052604090205460ff16610ce95760405162461bcd60e51b815260040161012a906112ca565b806001600160a01b038116610d105760405162461bcd60e51b815260040161012a9061130c565b6001600160a01b03821660009081526002602052604090205460ff1615610d795760405162461bcd60e51b815260206004820152601d60248201527f546865207573657220697320616c726561647920616e2061646d696e21000000604482015260640161012a565b506001600160a01b03166000908152600260205260409020805460ff19166001179055565b6000826003548110610dc25760405162461bcd60e51b815260040161012a906114a5565b505060009182526001602090815260408084206001600160a01b039390931684526007909201905290205490565b3460008111610e4c5760405162461bcd60e51b815260206004820152602260248201527f446f6e6174696f6e206d7573742062652067726561746572207468616e207a65604482015261726f60f01b606482015260840161012a565b816003548110610e6e5760405162461bcd60e51b815260040161012a906114a5565b610e76610fd6565b6000838152600160205260409020600881015460ff1615610ed25760405162461bcd60e51b815260206004820152601660248201527543616d706169676e20697320636f6d706c657465642160501b604482015260640161012a565b3360009081526007820160205260408120549003610f1257600681018054600181018255600091825260209091200180546001600160a01b031916331790555b34816004016000828254610f2691906114ea565b909155505033600090815260078201602052604081208054349290610f4c9084906114ea565b90915550506040805133815234602082015285917f0b5b4c52969ff7329ecf7ee536409fda87812b15a8622bc6e8cdeab3aee14a26910160405180910390a28060030154816004015410610fc65760405184907f4acdef45fd55ba3ad13c840b8650488e3312e0cdc273791c079350612400123190600090a25b50610fd16001600055565b505050565b600260005403610ff957604051633ee5aeb560e01b815260040160405180910390fd5b6002600055565b60006020828403121561101257600080fd5b5035919050565b6000815180845260005b8181101561103f57602081850181015186830182015201611023565b506000602082860101526020601f19601f83011685010191505092915050565b60e08152600061107260e083018a611019565b8281036020840152611084818a611019565b6001600160a01b0398909816604084015250506060810194909452608084019290925260a0830152151560c09091015292915050565b80356001600160a01b03811681146110d157600080fd5b919050565b6000602082840312156110e857600080fd5b6110f1826110ba565b9392505050565b634e487b7160e01b600052604160045260246000fd5b600082601f83011261111f57600080fd5b813567ffffffffffffffff811115611139576111396110f8565b604051601f8201601f19908116603f0116810167ffffffffffffffff81118282101715611168576111686110f8565b60405281815283820160200185101561118057600080fd5b816020850160208301376000918101602001919091529392505050565b600080600080608085870312156111b357600080fd5b843567ffffffffffffffff8111156111ca57600080fd5b6111d68782880161110e565b945050602085013567ffffffffffffffff8111156111f357600080fd5b6111ff8782880161110e565b93505061120e604086016110ba565b9396929550929360600135925050565b602080825282518282018190526000918401906040840190835b8181101561125f5783516001600160a01b0316835260209384019390920191600101611238565b509095945050505050565b6000806040838503121561127d57600080fd5b8235915061128d602084016110ba565b90509250929050565b600181811c908216806112aa57607f821691505b6020821081036107b057634e487b7160e01b600052602260045260246000fd5b60208082526022908201527f4f6e6c792061646d696e2063616e20706572666f726d2074686973206163746960408201526137b760f11b606082015260800190565b60208082526010908201526f496e76616c696420616464726573732160801b604082015260600190565b601f821115610fd157806000526020600020601f840160051c8101602085101561135d5750805b601f840160051c820191505b8181101561137d5760008155600101611369565b5050505050565b815167ffffffffffffffff81111561139e5761139e6110f8565b6113b2816113ac8454611296565b84611336565b6020601f8211600181146113e657600083156113ce5750848201515b600019600385901b1c1916600184901b17845561137d565b600084815260208120601f198516915b8281101561141657878501518255602094850194600190920191016113f6565b50848210156114345786840151600019600387901b60f8161c191681555b50505050600190811b01905550565b6060815260006114566060830186611019565b6020830194909452506001600160a01b0391909116604090910152919050565b634e487b7160e01b600052601160045260246000fd5b60006001820161149e5761149e611476565b5060010190565b60208082526025908201527f43616d706169676e2077697468207468697320494420646f6573206e6f742065604082015264786973742160d81b606082015260800190565b808201808211156114fd576114fd611476565b9291505056fea2646970667358221220075bf2ba672f481e11b1a23572e21a4951bc4d85eeb4baa6ff69af71b37023e064736f6c634300081c0033",
  "linkReferences": {},
  "deployedLinkReferences": {}
}